:1000000000308A005F2800000A108A100A11820757
:100010007034603450344034303420341034003480
:1000200083181528373084008313F701F801F9018C
:10003000FA01B701B801B901BA0136083504340430
:100040003304031953282030BB000310AF0DB00D4B
:10005000B10DB20DB70DB80DB90DBA0D36083A0293
:10006000031D3C2835083902031D3C28340838029A
:10007000031D3C2833083702031C4D283308B70200
:100080003408031C340FB8023508031C350FB902BD
:100090003608031C360FBA020314F70DF80DF90DDC
:1000A000FA0DBB0B252837088000840A3808800029
:1000B000840A39088000840A3A0880000800831600
:1000C0001F149F141F159F1107309C0083131F30AE
:1000D00083058312A4012530A3005630A200E83026
:1000E000A100A5013230A6002408AA002308A90017
:1000F0002208A8002108A7002508083C031CC828DE
:10010000A708031D8C28A808031D8C28A908031D17
:100110008C28AA080319C82883142B308400831361
:100120002A08B2002908B1002808B0002708AF004B
:10013000B601B501B4010A30B30010202E08B20098
:100140002D08B1002C08B0002B08AF0025080420B2
:10015000F800AF048316860183122F088600A50AD3
:1001600083102A08B2002908B1002808B000270827
:10017000AF00B601B501B4010A30B30010207A080F
:10018000AA007908A9007808A8007708A7007C28A9
:06019000A50174286300C4
:02400E00323F3F
:00000001FF
;PIC16F877A
;CRC=DB8F  CREATED="26-Kas-20 18:12"
