:1000000001308A003729000020102008831687005D
:1000100083120714A0102008831687008312871408
:10002000201120088316870083120715A0112008CD
:1000300083168700831287152010200883168700F7
:100040008312071020162008831687008312071AD0
:100050002E28831686010630831286002010200881
:100060008316870083120714A010200883168700C8
:100070008312871020162008831687008312071A20
:10008000462883168601663083128600A010200859
:100090008316870083128714201120088316870097
:1000A0008312071120162008831687008312071A6F
:1000B0005E288316860107308312860020112008EF
:1000C0008316870083120715A01120088316870066
:1000D0008312871120162008831687008312071ABF
:1000E000762883168601393083128600A0112008F5
:1000F0008316870083128715201020088316870037
:1001000083120710A0162008831687008312871A0F
:100110008E28831686015B3083128600201020080B
:100120008316870083120714A01020088316870007
:1001300083128710A0162008831687008312871A5F
:10014000A628831686016D3083128600A010200831
:1001500083168700831287142011200883168700D6
:1001600083120711A0162008831687008312871AAE
:10017000BE28831686017F30831286002011200856
:100180008316870083120715A011200883168700A5
:1001900083128711A0162008831687008312871AFE
:1001A000D628831686013F3083128600A0112008CE
:1001B0008316870083128715201020088316870076
:1001C0008312071020172008831687008312071B4D
:1001D000EE28831686014F308312860020102008F7
:1001E0008316870083120714A01020088316870047
:1001F0008312871020172008831687008312071B9D
:100200000629831686017D3083128600A0102008FF
:100210008316870083128714201120088316870015
:100220008312071120172008831687008312071BEB
:100230001E29831686016F30831286008A110A12E6
:10024000472921308400831300080319342906301C
:10025000F800F701F70B2A29F80B29297B30F70062
:10026000F70B3029800B27298A110A124A29FF30FF
:10027000A00083161F149F141F159F1107309C00A8
:1002800083131F30830586018312860104283230D0
:08029000A100212946296300A9
:02400E00723FFF
:00000001FF
;PIC16F877A
;CRC=EF64  CREATED="22-Ara-20 14:37"
